{
  "_format": "hh-sol-artifact-1",
  "contractName": "ManageListing",
  "sourceName": "contracts/ManageListing.sol",
  "abi": [
    {
      "anonymous": false,
      "inputs": [
        {
          "indexed": false,
          "internalType": "address",
          "name": "sender",
          "type": "address"
        },
        {
          "indexed": false,
          "internalType": "uint256",
          "name": "id",
          "type": "uint256"
        },
        {
          "indexed": false,
          "internalType": "string",
          "name": "description",
          "type": "string"
        }
      ],
      "name": "NewListing",
      "type": "event"
    },
    {
      "inputs": [
        {
          "internalType": "uint256",
          "name": "listingId",
          "type": "uint256"
        }
      ],
      "name": "addBidder",
      "outputs": [],
      "stateMutability": "nonpayable",
      "type": "function"
    },
    {
      "inputs": [
        {
          "internalType": "uint256",
          "name": "",
          "type": "uint256"
        }
      ],
      "name": "bids",
      "outputs": [
        {
          "internalType": "address",
          "name": "bidder",
          "type": "address"
        },
        {
          "internalType": "uint256",
          "name": "listindId",
          "type": "uint256"
        }
      ],
      "stateMutability": "view",
      "type": "function"
    },
    {
      "inputs": [
        {
          "internalType": "int256",
          "name": "baths",
          "type": "int256"
        },
        {
          "internalType": "int256",
          "name": "beds",
          "type": "int256"
        },
        {
          "internalType": "string",
          "name": "city",
          "type": "string"
        },
        {
          "internalType": "string",
          "name": "description",
          "type": "string"
        },
        {
          "internalType": "string",
          "name": "headerImage",
          "type": "string"
        },
        {
          "internalType": "string",
          "name": "price",
          "type": "string"
        },
        {
          "internalType": "string",
          "name": "sqft",
          "type": "string"
        },
        {
          "internalType": "string",
          "name": "state",
          "type": "string"
        },
        {
          "internalType": "string",
          "name": "streetAddress",
          "type": "string"
        },
        {
          "internalType": "string",
          "name": "zipcode",
          "type": "string"
        }
      ],
      "name": "createListing",
      "outputs": [],
      "stateMutability": "nonpayable",
      "type": "function"
    },
    {
      "inputs": [],
      "name": "getAllListings",
      "outputs": [
        {
          "components": [
            {
              "internalType": "int256",
              "name": "baths",
              "type": "int256"
            },
            {
              "internalType": "int256",
              "name": "beds",
              "type": "int256"
            },
            {
              "internalType": "string",
              "name": "city",
              "type": "string"
            },
            {
              "internalType": "string",
              "name": "description",
              "type": "string"
            },
            {
              "internalType": "string",
              "name": "headerImage",
              "type": "string"
            },
            {
              "internalType": "string",
              "name": "price",
              "type": "string"
            },
            {
              "internalType": "string",
              "name": "sqft",
              "type": "string"
            },
            {
              "internalType": "string",
              "name": "state",
              "type": "string"
            },
            {
              "internalType": "string",
              "name": "streetAddress",
              "type": "string"
            },
            {
              "internalType": "string",
              "name": "zipcode",
              "type": "string"
            },
            {
              "internalType": "uint256",
              "name": "id",
              "type": "uint256"
            },
            {
              "internalType": "uint256",
              "name": "listingId",
              "type": "uint256"
            },
            {
              "internalType": "uint256[]",
              "name": "coordinates",
              "type": "uint256[]"
            }
          ],
          "internalType": "struct ManageListing.Listing[]",
          "name": "",
          "type": "tuple[]"
        }
      ],
      "stateMutability": "view",
      "type": "function"
    },
    {
      "inputs": [
        {
          "internalType": "uint256",
          "name": "listingId",
          "type": "uint256"
        }
      ],
      "name": "getListing",
      "outputs": [
        {
          "components": [
            {
              "internalType": "int256",
              "name": "baths",
              "type": "int256"
            },
            {
              "internalType": "int256",
              "name": "beds",
              "type": "int256"
            },
            {
              "internalType": "string",
              "name": "city",
              "type": "string"
            },
            {
              "internalType": "string",
              "name": "description",
              "type": "string"
            },
            {
              "internalType": "string",
              "name": "headerImage",
              "type": "string"
            },
            {
              "internalType": "string",
              "name": "price",
              "type": "string"
            },
            {
              "internalType": "string",
              "name": "sqft",
              "type": "string"
            },
            {
              "internalType": "string",
              "name": "state",
              "type": "string"
            },
            {
              "internalType": "string",
              "name": "streetAddress",
              "type": "string"
            },
            {
              "internalType": "string",
              "name": "zipcode",
              "type": "string"
            },
            {
              "internalType": "uint256",
              "name": "id",
              "type": "uint256"
            },
            {
              "internalType": "uint256",
              "name": "listingId",
              "type": "uint256"
            },
            {
              "internalType": "uint256[]",
              "name": "coordinates",
              "type": "uint256[]"
            }
          ],
          "internalType": "struct ManageListing.Listing",
          "name": "",
          "type": "tuple"
        }
      ],
      "stateMutability": "view",
      "type": "function"
    },
    {
      "inputs": [],
      "name": "indexId",
      "outputs": [
        {
          "internalType": "uint256",
          "name": "",
          "type": "uint256"
        }
      ],
      "stateMutability": "view",
      "type": "function"
    },
    {
      "inputs": [
        {
          "internalType": "uint256",
          "name": "",
          "type": "uint256"
        }
      ],
      "name": "listings",
      "outputs": [
        {
          "internalType": "int256",
          "name": "baths",
          "type": "int256"
        },
        {
          "internalType": "int256",
          "name": "beds",
          "type": "int256"
        },
        {
          "internalType": "string",
          "name": "city",
          "type": "string"
        },
        {
          "internalType": "string",
          "name": "description",
          "type": "string"
        },
        {
          "internalType": "string",
          "name": "headerImage",
          "type": "string"
        },
        {
          "internalType": "string",
          "name": "price",
          "type": "string"
        },
        {
          "internalType": "string",
          "name": "sqft",
          "type": "string"
        },
        {
          "internalType": "string",
          "name": "state",
          "type": "string"
        },
        {
          "internalType": "string",
          "name": "streetAddress",
          "type": "string"
        },
        {
          "internalType": "string",
          "name": "zipcode",
          "type": "string"
        },
        {
          "internalType": "uint256",
          "name": "id",
          "type": "uint256"
        },
        {
          "internalType": "uint256",
          "name": "listingId",
          "type": "uint256"
        }
      ],
      "stateMutability": "view",
      "type": "function"
    },
    {
      "inputs": [],
      "name": "tokenId",
      "outputs": [
        {
          "internalType": "uint256",
          "name": "",
          "type": "uint256"
        }
      ],
      "stateMutability": "view",
      "type": "function"
    }
  ],
  "bytecode": "0x608060405234801561001057600080fd5b5061262d806100206000396000f3fe608060405234801561001057600080fd5b50600436106100885760003560e01c8063ae73ccec1161005b578063ae73ccec1461012a578063de74e57b14610148578063e22442ca14610183578063eba6841f1461019f57610088565b8063107a274a1461008d57806317d70f7c146100bd5780634423c5f1146100db578063882ca1491461010c575b600080fd5b6100a760048036038101906100a29190611c05565b6101bb565b6040516100b4919061229c565b60405180910390f35b6100c5610836565b6040516100d291906122be565b60405180910390f35b6100f560048036038101906100f09190611c05565b61083c565b6040516101039291906120af565b60405180910390f35b610114610890565b60405161012191906122be565b60405180910390f35b610132610896565b60405161013f9190612116565b60405180910390f35b610162600480360381019061015d9190611c05565b610e06565b60405161017a9c9b9a99989796959493929190612138565b60405180910390f35b61019d60048036038101906101989190611a6a565b6112b6565b005b6101b960048036038101906101b49190611c05565b611670565b005b6101c3611880565b6000600380549050116101d557600080fd5b60005b6003805490508110156107f5576003818154811061021f577f4e487b7100000000000000000000000000000000000000000000000000000000600052603260045260246000fd5b90600052602060002090600d0201600b01548314156107e2576102766040518060400160405280600d81526020017f4c697374696e6720666f756e6400000000000000000000000000000000000000815250611722565b600383815481106102b0577f4e487b7100000000000000000000000000000000000000000000000000000000600052603260045260246000fd5b90600052602060002090600d0201604051806101a001604052908160008201548152602001600182015481526020016002820180546102ee90612456565b80601f016020809104026020016040519081016040528092919081815260200182805461031a90612456565b80156103675780601f1061033c57610100808354040283529160200191610367565b820191906000526020600020905b81548152906001019060200180831161034a57829003601f168201915b5050505050815260200160038201805461038090612456565b80601f01602080910402602001604051908101604052809291908181526020018280546103ac90612456565b80156103f95780601f106103ce576101008083540402835291602001916103f9565b820191906000526020600020905b8154815290600101906020018083116103dc57829003601f168201915b5050505050815260200160048201805461041290612456565b80601f016020809104026020016040519081016040528092919081815260200182805461043e90612456565b801561048b5780601f106104605761010080835404028352916020019161048b565b820191906000526020600020905b81548152906001019060200180831161046e57829003601f168201915b505050505081526020016005820180546104a490612456565b80601f01602080910402602001604051908101604052809291908181526020018280546104d090612456565b801561051d5780601f106104f25761010080835404028352916020019161051d565b820191906000526020600020905b81548152906001019060200180831161050057829003601f168201915b5050505050815260200160068201805461053690612456565b80601f016020809104026020016040519081016040528092919081815260200182805461056290612456565b80156105af5780601f10610584576101008083540402835291602001916105af565b820191906000526020600020905b81548152906001019060200180831161059257829003601f168201915b505050505081526020016007820180546105c890612456565b80601f01602080910402602001604051908101604052809291908181526020018280546105f490612456565b80156106415780601f1061061657610100808354040283529160200191610641565b820191906000526020600020905b81548152906001019060200180831161062457829003601f168201915b5050505050815260200160088201805461065a90612456565b80601f016020809104026020016040519081016040528092919081815260200182805461068690612456565b80156106d35780601f106106a8576101008083540402835291602001916106d3565b820191906000526020600020905b8154815290600101906020018083116106b657829003601f168201915b505050505081526020016009820180546106ec90612456565b80601f016020809104026020016040519081016040528092919081815260200182805461071890612456565b80156107655780601f1061073a57610100808354040283529160200191610765565b820191906000526020600020905b81548152906001019060200180831161074857829003601f168201915b50505050508152602001600a8201548152602001600b8201548152602001600c82018054806020026020016040519081016040528092919081815260200182805480156107d157602002820191906000526020600020905b8154815260200190600101908083116107bd575b505050505081525050915050610831565b80806107ed906124b9565b9150506101d8565b506040517f08c379a00000000000000000000000000000000000000000000000000000000081526004016108289061227c565b60405180910390fd5b919050565b60015481565b6002818154811061084c57600080fd5b90600052602060002090600202016000915090508060000160009054906101000a900473ffffffffffffffffffffffffffffffffffffffff16908060010154905082565b60005481565b60606003805480602002602001604051908101604052809291908181526020016000905b82821015610dfd57838290600052602060002090600d0201604051806101a0016040529081600082015481526020016001820154815260200160028201805461090290612456565b80601f016020809104026020016040519081016040528092919081815260200182805461092e90612456565b801561097b5780601f106109505761010080835404028352916020019161097b565b820191906000526020600020905b81548152906001019060200180831161095e57829003601f168201915b5050505050815260200160038201805461099490612456565b80601f01602080910402602001604051908101604052809291908181526020018280546109c090612456565b8015610a0d5780601f106109e257610100808354040283529160200191610a0d565b820191906000526020600020905b8154815290600101906020018083116109f057829003601f168201915b50505050508152602001600482018054610a2690612456565b80601f0160208091040260200160405190810160405280929190818152602001828054610a5290612456565b8015610a9f5780601f10610a7457610100808354040283529160200191610a9f565b820191906000526020600020905b815481529060010190602001808311610a8257829003601f168201915b50505050508152602001600582018054610ab890612456565b80601f0160208091040260200160405190810160405280929190818152602001828054610ae490612456565b8015610b315780601f10610b0657610100808354040283529160200191610b31565b820191906000526020600020905b815481529060010190602001808311610b1457829003601f168201915b50505050508152602001600682018054610b4a90612456565b80601f0160208091040260200160405190810160405280929190818152602001828054610b7690612456565b8015610bc35780601f10610b9857610100808354040283529160200191610bc3565b820191906000526020600020905b815481529060010190602001808311610ba657829003601f168201915b50505050508152602001600782018054610bdc90612456565b80601f0160208091040260200160405190810160405280929190818152602001828054610c0890612456565b8015610c555780601f10610c2a57610100808354040283529160200191610c55565b820191906000526020600020905b815481529060010190602001808311610c3857829003601f168201915b50505050508152602001600882018054610c6e90612456565b80601f0160208091040260200160405190810160405280929190818152602001828054610c9a90612456565b8015610ce75780601f10610cbc57610100808354040283529160200191610ce7565b820191906000526020600020905b815481529060010190602001808311610cca57829003601f168201915b50505050508152602001600982018054610d0090612456565b80601f0160208091040260200160405190810160405280929190818152602001828054610d2c90612456565b8015610d795780601f10610d4e57610100808354040283529160200191610d79565b820191906000526020600020905b815481529060010190602001808311610d5c57829003601f168201915b50505050508152602001600a8201548152602001600b8201548152602001600c8201805480602002602001604051908101604052809291908181526020018280548015610de557602002820191906000526020600020905b815481526020019060010190808311610dd1575b505050505081525050815260200190600101906108ba565b50505050905090565b60038181548110610e1657600080fd5b90600052602060002090600d0201600091509050806000015490806001015490806002018054610e4590612456565b80601f0160208091040260200160405190810160405280929190818152602001828054610e7190612456565b8015610ebe5780601f10610e9357610100808354040283529160200191610ebe565b820191906000526020600020905b815481529060010190602001808311610ea157829003601f168201915b505050505090806003018054610ed390612456565b80601f0160208091040260200160405190810160405280929190818152602001828054610eff90612456565b8015610f4c5780601f10610f2157610100808354040283529160200191610f4c565b820191906000526020600020905b815481529060010190602001808311610f2f57829003601f168201915b505050505090806004018054610f6190612456565b80601f0160208091040260200160405190810160405280929190818152602001828054610f8d90612456565b8015610fda5780601f10610faf57610100808354040283529160200191610fda565b820191906000526020600020905b815481529060010190602001808311610fbd57829003601f168201915b505050505090806005018054610fef90612456565b80601f016020809104026020016040519081016040528092919081815260200182805461101b90612456565b80156110685780601f1061103d57610100808354040283529160200191611068565b820191906000526020600020905b81548152906001019060200180831161104b57829003601f168201915b50505050509080600601805461107d90612456565b80601f01602080910402602001604051908101604052809291908181526020018280546110a990612456565b80156110f65780601f106110cb576101008083540402835291602001916110f6565b820191906000526020600020905b8154815290600101906020018083116110d957829003601f168201915b50505050509080600701805461110b90612456565b80601f016020809104026020016040519081016040528092919081815260200182805461113790612456565b80156111845780601f1061115957610100808354040283529160200191611184565b820191906000526020600020905b81548152906001019060200180831161116757829003601f168201915b50505050509080600801805461119990612456565b80601f01602080910402602001604051908101604052809291908181526020018280546111c590612456565b80156112125780601f106111e757610100808354040283529160200191611212565b820191906000526020600020905b8154815290600101906020018083116111f557829003601f168201915b50505050509080600901805461122790612456565b80601f016020809104026020016040519081016040528092919081815260200182805461125390612456565b80156112a05780601f10611275576101008083540402835291602001916112a0565b820191906000526020600020905b81548152906001019060200180831161128357829003601f168201915b50505050509080600a01549080600b015490508c565b60008251116112c457600080fd5b6113056040518060400160405280600f81526020017f63757272656e7420696e646578496400000000000000000000000000000000008152506000546117bb565b6113466040518060400160405280600f81526020017f63757272656e7420746f6b656e496400000000000000000000000000000000008152506001546117bb565b6000604051806101a001604052808c81526020018b81526020018a815260200189815260200188815260200187815260200186815260200185815260200184815260200183815260200160005481526020016001548152602001600067ffffffffffffffff8111156113e1577f4e487b7100000000000000000000000000000000000000000000000000000000600052604160045260246000fd5b60405190808252806020026020018201604052801561140f5781602001602082028036833780820191505090505b50815250905060038190806001815401808255809150506001900390600052602060002090600d0201600090919091909150600082015181600001556020820151816001015560408201518160020190805190602001906114719291906118e8565b50606082015181600301908051906020019061148e9291906118e8565b5060808201518160040190805190602001906114ab9291906118e8565b5060a08201518160050190805190602001906114c89291906118e8565b5060c08201518160060190805190602001906114e59291906118e8565b5060e08201518160070190805190602001906115029291906118e8565b506101008201518160080190805190602001906115209291906118e8565b5061012082015181600901908051906020019061153e9291906118e8565b5061014082015181600a015561016082015181600b015561018082015181600c01908051906020019061157292919061196e565b505050600080815480929190611587906124b9565b91905055506001600081548092919061159f906124b9565b91905055506115e56040518060400160405280601381526020017f696e646578496420696e6372656d656e746564000000000000000000000000008152506000546117bb565b6116266040518060400160405280601381526020017f746f6b656e496420696e6372656d656e746564000000000000000000000000008152506001546117bb565b7fd628f8cabad2d1c5cfa01dfdced1437603f0c1ac8e9b2a1ed20dc9c785e24aea336000548a60405161165b939291906120d8565b60405180910390a15050505050505050505050565b600060405180604001604052803373ffffffffffffffffffffffffffffffffffffffff168152602001838152509050600281908060018154018082558091505060019003906000526020600020906002020160009091909190915060008201518160000160006101000a81548173ffffffffffffffffffffffffffffffffffffffff021916908373ffffffffffffffffffffffffffffffffffffffff1602179055506020820151816001015550505050565b6117b881604051602401611736919061222a565b6040516020818303038152906040527f41304fac000000000000000000000000000000000000000000000000000000007bffffffffffffffffffffffffffffffffffffffffffffffffffffffff19166020820180517bffffffffffffffffffffffffffffffffffffffffffffffffffffffff8381831617835250505050611857565b50565b61185382826040516024016117d192919061224c565b6040516020818303038152906040527f9710a9d0000000000000000000000000000000000000000000000000000000007bffffffffffffffffffffffffffffffffffffffffffffffffffffffff19166020820180517bffffffffffffffffffffffffffffffffffffffffffffffffffffffff8381831617835250505050611857565b5050565b60008151905060006a636f6e736f6c652e6c6f679050602083016000808483855afa5050505050565b604051806101a00160405280600081526020016000815260200160608152602001606081526020016060815260200160608152602001606081526020016060815260200160608152602001606081526020016000815260200160008152602001606081525090565b8280546118f490612456565b90600052602060002090601f016020900481019282611916576000855561195d565b82601f1061192f57805160ff191683800117855561195d565b8280016001018555821561195d579182015b8281111561195c578251825591602001919060010190611941565b5b50905061196a91906119bb565b5090565b8280548282559060005260206000209081019282156119aa579160200282015b828111156119a957825182559160200191906001019061198e565b5b5090506119b791906119bb565b5090565b5b808211156119d45760008160009055506001016119bc565b5090565b60006119eb6119e6846122fe565b6122d9565b905082815260208101848484011115611a0357600080fd5b611a0e848285612414565b509392505050565b600081359050611a25816125c9565b92915050565b600082601f830112611a3c57600080fd5b8135611a4c8482602086016119d8565b91505092915050565b600081359050611a64816125e0565b92915050565b6000806000806000806000806000806101408b8d031215611a8a57600080fd5b6000611a988d828e01611a16565b9a50506020611aa98d828e01611a16565b99505060408b013567ffffffffffffffff811115611ac657600080fd5b611ad28d828e01611a2b565b98505060608b013567ffffffffffffffff811115611aef57600080fd5b611afb8d828e01611a2b565b97505060808b013567ffffffffffffffff811115611b1857600080fd5b611b248d828e01611a2b565b96505060a08b013567ffffffffffffffff811115611b4157600080fd5b611b4d8d828e01611a2b565b95505060c08b013567ffffffffffffffff811115611b6a57600080fd5b611b768d828e01611a2b565b94505060e08b013567ffffffffffffffff811115611b9357600080fd5b611b9f8d828e01611a2b565b9350506101008b013567ffffffffffffffff811115611bbd57600080fd5b611bc98d828e01611a2b565b9250506101208b013567ffffffffffffffff811115611be757600080fd5b611bf38d828e01611a2b565b9150509295989b9194979a5092959850565b600060208284031215611c1757600080fd5b6000611c2584828501611a55565b91505092915050565b6000611c3a8383611def565b905092915050565b6000611c4e8383612091565b60208301905092915050565b611c63816123ce565b82525050565b6000611c748261234f565b611c7e818561238a565b935083602082028501611c908561232f565b8060005b85811015611ccc5784840389528151611cad8582611c2e565b9450611cb883612370565b925060208a01995050600181019050611c94565b50829750879550505050505092915050565b6000611ce98261235a565b611cf3818561239b565b9350611cfe8361233f565b8060005b83811015611d2f578151611d168882611c42565b9750611d218361237d565b925050600181019050611d02565b5085935050505092915050565b611d45816123e0565b82525050565b611d54816123e0565b82525050565b6000611d6582612365565b611d6f81856123ac565b9350611d7f818560208601612423565b611d888161258f565b840191505092915050565b6000611d9e82612365565b611da881856123bd565b9350611db8818560208601612423565b611dc18161258f565b840191505092915050565b6000611dd96009836123bd565b9150611de4826125a0565b602082019050919050565b60006101a083016000830151611e086000860182611d3c565b506020830151611e1b6020860182611d3c565b5060408301518482036040860152611e338282611d5a565b91505060608301518482036060860152611e4d8282611d5a565b91505060808301518482036080860152611e678282611d5a565b91505060a083015184820360a0860152611e818282611d5a565b91505060c083015184820360c0860152611e9b8282611d5a565b91505060e083015184820360e0860152611eb58282611d5a565b915050610100830151848203610100860152611ed18282611d5a565b915050610120830151848203610120860152611eed8282611d5a565b915050610140830151611f04610140860182612091565b50610160830151611f19610160860182612091565b50610180830151848203610180860152611f338282611cde565b9150508091505092915050565b60006101a083016000830151611f596000860182611d3c565b506020830151611f6c6020860182611d3c565b5060408301518482036040860152611f848282611d5a565b91505060608301518482036060860152611f9e8282611d5a565b91505060808301518482036080860152611fb88282611d5a565b91505060a083015184820360a0860152611fd28282611d5a565b91505060c083015184820360c0860152611fec8282611d5a565b91505060e083015184820360e08601526120068282611d5a565b9150506101008301518482036101008601526120228282611d5a565b91505061012083015184820361012086015261203e8282611d5a565b915050610140830151612055610140860182612091565b5061016083015161206a610160860182612091565b506101808301518482036101808601526120848282611cde565b9150508091505092915050565b61209a8161240a565b82525050565b6120a98161240a565b82525050565b60006040820190506120c46000830185611c5a565b6120d160208301846120a0565b9392505050565b60006060820190506120ed6000830186611c5a565b6120fa60208301856120a0565b818103604083015261210c8184611d93565b9050949350505050565b600060208201905081810360008301526121308184611c69565b905092915050565b60006101808201905061214e600083018f611d4b565b61215b602083018e611d4b565b818103604083015261216d818d611d93565b90508181036060830152612181818c611d93565b90508181036080830152612195818b611d93565b905081810360a08301526121a9818a611d93565b905081810360c08301526121bd8189611d93565b905081810360e08301526121d18188611d93565b90508181036101008301526121e68187611d93565b90508181036101208301526121fb8186611d93565b905061220b6101408301856120a0565b6122196101608301846120a0565b9d9c50505050505050505050505050565b600060208201905081810360008301526122448184611d93565b905092915050565b600060408201905081810360008301526122668185611d93565b905061227560208301846120a0565b9392505050565b6000602082019050818103600083015261229581611dcc565b9050919050565b600060208201905081810360008301526122b68184611f40565b905092915050565b60006020820190506122d360008301846120a0565b92915050565b60006122e36122f4565b90506122ef8282612488565b919050565b6000604051905090565b600067ffffffffffffffff82111561231957612318612560565b5b6123228261258f565b9050602081019050919050565b6000819050602082019050919050565b6000819050602082019050919050565b600081519050919050565b600081519050919050565b600081519050919050565b6000602082019050919050565b6000602082019050919050565b600082825260208201905092915050565b600082825260208201905092915050565b600082825260208201905092915050565b600082825260208201905092915050565b60006123d9826123ea565b9050919050565b6000819050919050565b600073ffffffffffffffffffffffffffffffffffffffff82169050919050565b6000819050919050565b82818337600083830152505050565b60005b83811015612441578082015181840152602081019050612426565b83811115612450576000848401525b50505050565b6000600282049050600182168061246e57607f821691505b6020821081141561248257612481612531565b5b50919050565b6124918261258f565b810181811067ffffffffffffffff821117156124b0576124af612560565b5b80604052505050565b60006124c48261240a565b91507fffffffffffffffffffffffffffffffffffffffffffffffffffffffffffffffff8214156124f7576124f6612502565b5b600182019050919050565b7f4e487b7100000000000000000000000000000000000000000000000000000000600052601160045260246000fd5b7f4e487b7100000000000000000000000000000000000000000000000000000000600052602260045260246000fd5b7f4e487b7100000000000000000000000000000000000000000000000000000000600052604160045260246000fd5b6000601f19601f8301169050919050565b7f4e6f7420666f756e640000000000000000000000000000000000000000000000600082015250565b6125d2816123e0565b81146125dd57600080fd5b50565b6125e98161240a565b81146125f457600080fd5b5056fea2646970667358221220f1203343ff9001cd965af636f835f8c59ee352f7daa7600d9ad8aba5641c06c764736f6c63430008040033",
  "linkReferences": {},
  "deployedLinkReferences": {}
}