{
  "_format": "hh-sol-artifact-1",
  "contractName": "FilecoinUpload",
  "sourceName": "contracts/FilecoinUpload.sol",
  "abi": [
    {
      "anonymous": false,
      "inputs": [
        {
          "indexed": false,
          "internalType": "address",
          "name": "sender",
          "type": "address"
        },
        {
          "indexed": false,
          "internalType": "string",
          "name": "tokenURI",
          "type": "string"
        }
      ],
      "name": "NewFile",
      "type": "event"
    },
    {
      "inputs": [
        {
          "internalType": "uint256",
          "name": "",
          "type": "uint256"
        }
      ],
      "name": "fileCollection",
      "outputs": [
        {
          "internalType": "address",
          "name": "owner",
          "type": "address"
        },
        {
          "internalType": "string",
          "name": "tokenURI",
          "type": "string"
        }
      ],
      "stateMutability": "view",
      "type": "function"
    },
    {
      "inputs": [],
      "name": "getAllFles",
      "outputs": [
        {
          "components": [
            {
              "internalType": "address",
              "name": "owner",
              "type": "address"
            },
            {
              "internalType": "string",
              "name": "tokenURI",
              "type": "string"
            }
          ],
          "internalType": "struct FilecoinUpload.File[]",
          "name": "",
          "type": "tuple[]"
        }
      ],
      "stateMutability": "view",
      "type": "function"
    },
    {
      "inputs": [
        {
          "internalType": "string",
          "name": "ipfsURI",
          "type": "string"
        }
      ],
      "name": "storeFile",
      "outputs": [],
      "stateMutability": "nonpayable",
      "type": "function"
    }
  ],
  "bytecode": "0x608060405234801561001057600080fd5b50610aa6806100206000396000f3fe608060405234801561001057600080fd5b50600436106100415760003560e01c8063b47682d314610046578063e602406a14610077578063fc1ba51714610093575b600080fd5b610060600480360381019061005b9190610645565b6100b1565b60405161006e9291906107c4565b60405180910390f35b610091600480360381019061008c9190610604565b61018d565b005b61009b6102d8565b6040516100a891906107f4565b60405180910390f35b600081815481106100c157600080fd5b90600052602060002090600202016000915090508060000160009054906101000a900473ffffffffffffffffffffffffffffffffffffffff169080600101805461010a90610987565b80601f016020809104026020016040519081016040528092919081815260200182805461013690610987565b80156101835780601f1061015857610100808354040283529160200191610183565b820191906000526020600020905b81548152906001019060200180831161016657829003601f168201915b5050505050905082565b600081511161019b57600080fd5b6101da6040518060400160405280600e81526020017f596f757220746f6b656e2075726c0000000000000000000000000000000000008152508261041f565b600060405180604001604052803373ffffffffffffffffffffffffffffffffffffffff168152602001838152509050600081908060018154018082558091505060019003906000526020600020906002020160009091909190915060008201518160000160006101000a81548173ffffffffffffffffffffffffffffffffffffffff021916908373ffffffffffffffffffffffffffffffffffffffff16021790555060208201518160010190805190602001906102989291906104e4565b5050507fe2c8741ab68ac2cc1565fbf8c973e8d76bd91a23dc20b97ce3efd2708b1c5a1a33836040516102cc9291906107c4565b60405180910390a15050565b60606000805480602002602001604051908101604052809291908181526020016000905b8282101561041657838290600052602060002090600202016040518060400160405290816000820160009054906101000a900473ffffffffffffffffffffffffffffffffffffffff1673ffffffffffffffffffffffffffffffffffffffff1673ffffffffffffffffffffffffffffffffffffffff16815260200160018201805461038590610987565b80601f01602080910402602001604051908101604052809291908181526020018280546103b190610987565b80156103fe5780601f106103d3576101008083540402835291602001916103fe565b820191906000526020600020905b8154815290600101906020018083116103e157829003601f168201915b505050505081525050815260200190600101906102fc565b50505050905090565b6104b78282604051602401610435929190610816565b6040516020818303038152906040527f4b5c4277000000000000000000000000000000000000000000000000000000007bffffffffffffffffffffffffffffffffffffffffffffffffffffffff19166020820180517bffffffffffffffffffffffffffffffffffffffffffffffffffffffff83818316178352505050506104bb565b5050565b60008151905060006a636f6e736f6c652e6c6f679050602083016000808483855afa5050505050565b8280546104f090610987565b90600052602060002090601f0160209004810192826105125760008555610559565b82601f1061052b57805160ff1916838001178555610559565b82800160010185558215610559579182015b8281111561055857825182559160200191906001019061053d565b5b509050610566919061056a565b5090565b5b8082111561058357600081600090555060010161056b565b5090565b600061059a61059584610872565b61084d565b9050828152602081018484840111156105b257600080fd5b6105bd848285610945565b509392505050565b600082601f8301126105d657600080fd5b81356105e6848260208601610587565b91505092915050565b6000813590506105fe81610a59565b92915050565b60006020828403121561061657600080fd5b600082013567ffffffffffffffff81111561063057600080fd5b61063c848285016105c5565b91505092915050565b60006020828403121561065757600080fd5b6000610665848285016105ef565b91505092915050565b600061067a8383610787565b905092915050565b61068b81610909565b82525050565b61069a81610909565b82525050565b60006106ab826108b3565b6106b581856108d6565b9350836020820285016106c7856108a3565b8060005b8581101561070357848403895281516106e4858261066e565b94506106ef836108c9565b925060208a019950506001810190506106cb565b50829750879550505050505092915050565b6000610720826108be565b61072a81856108e7565b935061073a818560208601610954565b61074381610a48565b840191505092915050565b6000610759826108be565b61076381856108f8565b9350610773818560208601610954565b61077c81610a48565b840191505092915050565b600060408301600083015161079f6000860182610682565b50602083015184820360208601526107b78282610715565b9150508091505092915050565b60006040820190506107d96000830185610691565b81810360208301526107eb818461074e565b90509392505050565b6000602082019050818103600083015261080e81846106a0565b905092915050565b60006040820190508181036000830152610830818561074e565b90508181036020830152610844818461074e565b90509392505050565b6000610857610868565b905061086382826109b9565b919050565b6000604051905090565b600067ffffffffffffffff82111561088d5761088c610a19565b5b61089682610a48565b9050602081019050919050565b6000819050602082019050919050565b600081519050919050565b600081519050919050565b6000602082019050919050565b600082825260208201905092915050565b600082825260208201905092915050565b600082825260208201905092915050565b60006109148261091b565b9050919050565b600073ffffffffffffffffffffffffffffffffffffffff82169050919050565b6000819050919050565b82818337600083830152505050565b60005b83811015610972578082015181840152602081019050610957565b83811115610981576000848401525b50505050565b6000600282049050600182168061099f57607f821691505b602082108114156109b3576109b26109ea565b5b50919050565b6109c282610a48565b810181811067ffffffffffffffff821117156109e1576109e0610a19565b5b80604052505050565b7f4e487b7100000000000000000000000000000000000000000000000000000000600052602260045260246000fd5b7f4e487b7100000000000000000000000000000000000000000000000000000000600052604160045260246000fd5b6000601f19601f8301169050919050565b610a628161093b565b8114610a6d57600080fd5b5056fea26469706673582212201d61fa1035a37c1538b90b675adfe7c592b55e9b4c9166bdf8d4e5d1ceaf2ce564736f6c63430008040033",
  "linkReferences": {},
  "deployedLinkReferences": {}
}